{
  "contractName": "Election",
  "abi": [
    {
      "inputs": [],
      "stateMutability": "nonpayable",
      "type": "constructor"
    },
    {
      "anonymous": false,
      "inputs": [
        {
          "indexed": false,
          "internalType": "uint256",
          "name": "id",
          "type": "uint256"
        },
        {
          "indexed": false,
          "internalType": "string",
          "name": "name",
          "type": "string"
        },
        {
          "indexed": false,
          "internalType": "uint256",
          "name": "noOfVotes",
          "type": "uint256"
        }
      ],
      "name": "electionupdate",
      "type": "event"
    },
    {
      "inputs": [
        {
          "internalType": "uint256",
          "name": "",
          "type": "uint256"
        }
      ],
      "name": "candidates",
      "outputs": [
        {
          "internalType": "uint256",
          "name": "id",
          "type": "uint256"
        },
        {
          "internalType": "string",
          "name": "name",
          "type": "string"
        },
        {
          "internalType": "uint256",
          "name": "noOfVotes",
          "type": "uint256"
        }
      ],
      "stateMutability": "view",
      "type": "function",
      "constant": true
    },
    {
      "inputs": [],
      "name": "noOfCandidates",
      "outputs": [
        {
          "internalType": "uint256",
          "name": "",
          "type": "uint256"
        }
      ],
      "stateMutability": "view",
      "type": "function",
      "constant": true
    },
    {
      "inputs": [
        {
          "internalType": "address",
          "name": "",
          "type": "address"
        }
      ],
      "name": "voted",
      "outputs": [
        {
          "internalType": "bool",
          "name": "",
          "type": "bool"
        }
      ],
      "stateMutability": "view",
      "type": "function",
      "constant": true
    },
    {
      "inputs": [
        {
          "internalType": "uint256",
          "name": "_id",
          "type": "uint256"
        }
      ],
      "name": "voteCandidate",
      "outputs": [],
      "stateMutability": "nonpayable",
      "type": "function"
    }
  ],
  "bytecode": "0x60806040523480156200001157600080fd5b50620000586040518060400160405280600381526020017f424a500000000000000000000000000000000000000000000000000000000000815250620000ea60201b60201c565b6200009e6040518060400160405280600381526020017f5550410000000000000000000000000000000000000000000000000000000000815250620000ea60201b60201c565b620000e46040518060400160405280600381526020017f4141500000000000000000000000000000000000000000000000000000000000815250620000ea60201b60201c565b6200030a565b600080815480929190620000fe9062000257565b919050555060405180606001604052806000548152602001828152602001600081525060016000805481526020019081526020016000206000820151816000015560208201518160010190805190602001906200015d9291906200016e565b506040820151816002015590505050565b8280546200017c90620002d4565b90600052602060002090601f016020900481019282620001a05760008555620001ec565b82601f10620001bb57805160ff1916838001178555620001ec565b82800160010185558215620001ec579182015b82811115620001eb578251825591602001919060010190620001ce565b5b509050620001fb9190620001ff565b5090565b5b808211156200021a57600081600090555060010162000200565b5090565b7f4e487b7100000000000000000000000000000000000000000000000000000000600052601160045260246000fd5b6000819050919050565b600062000264826200024d565b91507fffffffffffffffffffffffffffffffffffffffffffffffffffffffffffffffff8214156200029a57620002996200021e565b5b600182019050919050565b7f4e487b7100000000000000000000000000000000000000000000000000000000600052602260045260246000fd5b60006002820490506001821680620002ed57607f821691505b60208210811415620003045762000303620002a5565b5b50919050565b610875806200031a6000396000f3fe608060405234801561001057600080fd5b506004361061004c5760003560e01c8063183531a1146100515780633477ee2e1461006f5780638c08a4dc146100a1578063aec2ccae146100bd575b600080fd5b6100596100ed565b60405161006691906103aa565b60405180910390f35b610089600480360381019061008491906103f6565b6100f3565b604051610098939291906104bc565b60405180910390f35b6100bb60048036038101906100b691906103f6565b6101a5565b005b6100d760048036038101906100d29190610558565b610371565b6040516100e491906105a0565b60405180910390f35b60005481565b600160205280600052604060002060009150905080600001549080600101805461011c906105ea565b80601f0160208091040260200160405190810160405280929190818152602001828054610148906105ea565b80156101955780601f1061016a57610100808354040283529160200191610195565b820191906000526020600020905b81548152906001019060200180831161017857829003601f168201915b5050505050908060020154905083565b600260003373ffffffffffffffffffffffffffffffffffffffff1673ffffffffffffffffffffffffffffffffffffffff16815260200190815260200160002060009054906101000a900460ff1615610232576040517f08c379a000000000000000000000000000000000000000000000000000000000815260040161022990610668565b60405180910390fd5b6000811415801561024557506000548111155b610284576040517f08c379a000000000000000000000000000000000000000000000000000000000815260040161027b906106d4565b60405180910390fd5b6001600082815260200190815260200160002060020160008154809291906102ab90610723565b91905055506001600260003373ffffffffffffffffffffffffffffffffffffffff1673ffffffffffffffffffffffffffffffffffffffff16815260200190815260200160002060006101000a81548160ff0219169083151502179055507f015001a4c074f8fd1c2b8fcf252a7b41a56f3b51755c4be958eaac431940d4728160016000848152602001908152602001600020600101600160008581526020019081526020016000206002015460405161036693929190610801565b60405180910390a150565b60026020528060005260406000206000915054906101000a900460ff1681565b6000819050919050565b6103a481610391565b82525050565b60006020820190506103bf600083018461039b565b92915050565b600080fd5b6103d381610391565b81146103de57600080fd5b50565b6000813590506103f0816103ca565b92915050565b60006020828403121561040c5761040b6103c5565b5b600061041a848285016103e1565b91505092915050565b600081519050919050565b600082825260208201905092915050565b60005b8381101561045d578082015181840152602081019050610442565b8381111561046c576000848401525b50505050565b6000601f19601f8301169050919050565b600061048e82610423565b610498818561042e565b93506104a881856020860161043f565b6104b181610472565b840191505092915050565b60006060820190506104d1600083018661039b565b81810360208301526104e38185610483565b90506104f2604083018461039b565b949350505050565b600073ffffffffffffffffffffffffffffffffffffffff82169050919050565b6000610525826104fa565b9050919050565b6105358161051a565b811461054057600080fd5b50565b6000813590506105528161052c565b92915050565b60006020828403121561056e5761056d6103c5565b5b600061057c84828501610543565b91505092915050565b60008115159050919050565b61059a81610585565b82525050565b60006020820190506105b56000830184610591565b92915050565b7f4e487b7100000000000000000000000000000000000000000000000000000000600052602260045260246000fd5b6000600282049050600182168061060257607f821691505b60208210811415610616576106156105bb565b5b50919050565b7f616c726561647920766f74656421000000000000000000000000000000000000600082015250565b6000610652600e8361042e565b915061065d8261061c565b602082019050919050565b6000602082019050818103600083015261068181610645565b9050919050565b7f6e6f7420666f756e642063616e64696461746500000000000000000000000000600082015250565b60006106be60138361042e565b91506106c982610688565b602082019050919050565b600060208201905081810360008301526106ed816106b1565b9050919050565b7f4e487b7100000000000000000000000000000000000000000000000000000000600052601160045260246000fd5b600061072e82610391565b91507fffffffffffffffffffffffffffffffffffffffffffffffffffffffffffffffff821415610761576107606106f4565b5b600182019050919050565b60008190508160005260206000209050919050565b6000815461078e816105ea565b610798818661042e565b945060018216600081146107b357600181146107c5576107f8565b60ff19831686526020860193506107f8565b6107ce8561076c565b60005b838110156107f0578154818901526001820191506020810190506107d1565b808801955050505b50505092915050565b6000606082019050610816600083018661039b565b81810360208301526108288185610781565b9050610837604083018461039b565b94935050505056fea2646970667358221220d7509252558f2252d4cef9c593e9c7aa0b52dd73890e302b5c602dd91679acc464736f6c634300080b0033",
  "immutableReferences": {},
  "source": "// SPDX-License-Identifier: MIT\npragma solidity >=0.4.22 <0.9.0;\ncontract Election{\n    uint  public noOfCandidates;\n    struct candidate{\n        uint id;\n        string name;\n        uint noOfVotes;\n    }\n    mapping(uint=>candidate) public candidates;\n    mapping(address=>bool) public voted;\n    event electionupdate(\n        uint id,\n        string name,\n        uint noOfVotes\n    );\n    constructor(){\n          addCandidates(\"BJP\");\n          addCandidates(\"UPA\");\n          addCandidates(\"AAP\");\n    }\n\n    function addCandidates(string memory name) private{\n        noOfCandidates++;\n        candidates[noOfCandidates]=candidate(noOfCandidates,name,0);\n    }\n\n    function voteCandidate(uint _id)  public{\n        require(!voted[msg.sender],\"already voted!\");\n        require(_id!=0 && _id<=noOfCandidates,\"not found candidate\");\n        candidates[_id].noOfVotes++;\n        voted[msg.sender]=true;\n        emit electionupdate(_id,candidates[_id].name,candidates[_id].noOfVotes);\n    }\n\n}",
  "sourcePath": "/home/yashwant/Desktop/Election Dapp/contracts/Election.sol",
  "compiler": {
    "name": "solc",
    "version": "0.8.11+commit.d7f03943.Emscripten.clang"
  },
  "schemaVersion": "3.4.4",
  "updatedAt": "2022-02-14T15:46:42.756Z",
  "networkType": "ethereum",
  "devdoc": {
    "kind": "dev",
    "methods": {},
    "version": 1
  },
  "userdoc": {
    "kind": "user",
    "methods": {},
    "version": 1
  }
}